{
  "contractName": "AttendanceTracker",
  "abi": [
    {
      "inputs": [],
      "stateMutability": "nonpayable",
      "type": "constructor"
    },
    {
      "anonymous": false,
      "inputs": [
        {
          "indexed": true,
          "internalType": "uint256",
          "name": "employeeId",
          "type": "uint256"
        },
        {
          "indexed": false,
          "internalType": "uint256",
          "name": "checkInTime",
          "type": "uint256"
        },
        {
          "indexed": false,
          "internalType": "string",
          "name": "details",
          "type": "string"
        }
      ],
      "name": "Debug",
      "type": "event"
    },
    {
      "inputs": [
        {
          "internalType": "uint256",
          "name": "",
          "type": "uint256"
        }
      ],
      "name": "attendanceRecords",
      "outputs": [
        {
          "internalType": "uint256",
          "name": "employeeId",
          "type": "uint256"
        },
        {
          "internalType": "uint256",
          "name": "checkInTime",
          "type": "uint256"
        },
        {
          "internalType": "string",
          "name": "details",
          "type": "string"
        }
      ],
      "stateMutability": "view",
      "type": "function",
      "constant": true
    },
    {
      "inputs": [
        {
          "internalType": "uint256",
          "name": "",
          "type": "uint256"
        },
        {
          "internalType": "uint256",
          "name": "",
          "type": "uint256"
        }
      ],
      "name": "employeeAttendanceLog",
      "outputs": [
        {
          "internalType": "uint256",
          "name": "",
          "type": "uint256"
        }
      ],
      "stateMutability": "view",
      "type": "function",
      "constant": true
    },
    {
      "inputs": [],
      "name": "owner",
      "outputs": [
        {
          "internalType": "address",
          "name": "",
          "type": "address"
        }
      ],
      "stateMutability": "view",
      "type": "function",
      "constant": true
    },
    {
      "inputs": [
        {
          "internalType": "uint256",
          "name": "employeeId",
          "type": "uint256"
        },
        {
          "internalType": "uint256",
          "name": "checkInTime",
          "type": "uint256"
        },
        {
          "internalType": "string",
          "name": "details",
          "type": "string"
        }
      ],
      "name": "recordAttendance",
      "outputs": [],
      "stateMutability": "nonpayable",
      "type": "function"
    },
    {
      "inputs": [
        {
          "internalType": "uint256",
          "name": "employeeId",
          "type": "uint256"
        }
      ],
      "name": "getAttendanceByEmployee",
      "outputs": [
        {
          "components": [
            {
              "internalType": "uint256",
              "name": "employeeId",
              "type": "uint256"
            },
            {
              "internalType": "uint256",
              "name": "checkInTime",
              "type": "uint256"
            },
            {
              "internalType": "string",
              "name": "details",
              "type": "string"
            }
          ],
          "internalType": "struct AttendanceTracker.AttendanceRecord",
          "name": "",
          "type": "tuple"
        }
      ],
      "stateMutability": "view",
      "type": "function",
      "constant": true
    },
    {
      "inputs": [
        {
          "internalType": "uint256",
          "name": "employeeId",
          "type": "uint256"
        },
        {
          "internalType": "uint256",
          "name": "checkInTime",
          "type": "uint256"
        },
        {
          "internalType": "string",
          "name": "details",
          "type": "string"
        }
      ],
      "name": "updateAttendance",
      "outputs": [],
      "stateMutability": "nonpayable",
      "type": "function"
    },
    {
      "inputs": [
        {
          "internalType": "uint256",
          "name": "employeeId",
          "type": "uint256"
        },
        {
          "internalType": "uint256",
          "name": "startTime",
          "type": "uint256"
        },
        {
          "internalType": "uint256",
          "name": "endTime",
          "type": "uint256"
        }
      ],
      "name": "getAttendanceByDateRange",
      "outputs": [
        {
          "components": [
            {
              "internalType": "uint256",
              "name": "employeeId",
              "type": "uint256"
            },
            {
              "internalType": "uint256",
              "name": "checkInTime",
              "type": "uint256"
            },
            {
              "internalType": "string",
              "name": "details",
              "type": "string"
            }
          ],
          "internalType": "struct AttendanceTracker.AttendanceRecord[]",
          "name": "",
          "type": "tuple[]"
        }
      ],
      "stateMutability": "view",
      "type": "function",
      "constant": true
    }
  ],
  "bytecode": "0x6080604052348015600e575f80fd5b503360025f6101000a81548173ffffffffffffffffffffffffffffffffffffffff021916908373ffffffffffffffffffffffffffffffffffffffff1602179055506113528061005c5f395ff3fe608060405234801561000f575f80fd5b506004361061007b575f3560e01c80635763c184116100595780635763c184146100fb5780638da5cb5b1461012d5780639f43f46f1461014b578063d72e70e91461017b5761007b565b806308c220c21461007f5780632330f9ac1461009b5780632e74c140146100cb575b5f80fd5b61009960048036038101906100949190610a87565b610197565b005b6100b560048036038101906100b09190610af3565b6102f5565b6040516100c29190610b40565b60405180910390f35b6100e560048036038101906100e09190610b59565b610320565b6040516100f29190610c40565b60405180910390f35b61011560048036038101906101109190610b59565b6103ed565b60405161012493929190610ca8565b60405180910390f35b610135610498565b6040516101429190610d23565b60405180910390f35b61016560048036038101906101609190610d3c565b6104bd565b6040516101729190610e94565b60405180910390f35b61019560048036038101906101909190610a87565b61076f565b005b60025f9054906101000a900473ffffffffffffffffffffffffffffffffffffffff1673ffffffffffffffffffffffffffffffffffffffff163373ffffffffffffffffffffffffffffffffffffffff1614610226576040517f08c379a000000000000000000000000000000000000000000000000000000000815260040161021d90610efe565b60405180910390fd5b827f05133cebd17bb0db0851c6a5156d2538534769ffbe09b99e7807a42729339e5c8383604051610258929190610f1c565b60405180910390a25f6040518060600160405280858152602001848152602001838152509050805f808681526020019081526020015f205f820151815f01556020820151816001015560408201518160020190816102b69190611144565b5090505060015f8581526020019081526020015f2083908060018154018082558091505060019003905f5260205f20015f909190919091505550505050565b6001602052815f5260405f20818154811061030e575f80fd5b905f5260205f20015f91509150505481565b6103286108e8565b5f808381526020019081526020015f206040518060600160405290815f82015481526020016001820154815260200160028201805461036690610f77565b80601f016020809104026020016040519081016040528092919081815260200182805461039290610f77565b80156103dd5780601f106103b4576101008083540402835291602001916103dd565b820191905f5260205f20905b8154815290600101906020018083116103c057829003601f168201915b5050505050815250509050919050565b5f602052805f5260405f205f91509050805f01549080600101549080600201805461041790610f77565b80601f016020809104026020016040519081016040528092919081815260200182805461044390610f77565b801561048e5780601f106104655761010080835404028352916020019161048e565b820191905f5260205f20905b81548152906001019060200180831161047157829003601f168201915b5050505050905083565b60025f9054906101000a900473ffffffffffffffffffffffffffffffffffffffff1681565b60605f60015f8681526020019081526020015f2080548060200260200160405190810160405280929190818152602001828054801561051957602002820191905f5260205f20905b815481526020019060010190808311610505575b505050505090505f815167ffffffffffffffff81111561053c5761053b610963565b5b60405190808252806020026020018201604052801561057557816020015b6105626108e8565b81526020019060019003908161055a5790505b5090505f805b83518110156106b8575f805f86848151811061059a57610599611213565b5b602002602001015181526020019081526020015f206040518060600160405290815f8201548152602001600182015481526020016002820180546105dd90610f77565b80601f016020809104026020016040519081016040528092919081815260200182805461060990610f77565b80156106545780601f1061062b57610100808354040283529160200191610654565b820191905f5260205f20905b81548152906001019060200180831161063757829003601f168201915b505050505081525050905087816020015110158015610677575086816020015111155b156106aa57808484815181106106905761068f611213565b5b602002602001018190525082806106a69061126d565b9350505b50808060010191505061057b565b505f8167ffffffffffffffff8111156106d4576106d3610963565b5b60405190808252806020026020018201604052801561070d57816020015b6106fa6108e8565b8152602001906001900390816106f25790505b5090505f5b828110156107605783818151811061072d5761072c611213565b5b602002602001015182828151811061074857610747611213565b5b60200260200101819052508080600101915050610712565b50809450505050509392505050565b60025f9054906101000a900473ffffffffffffffffffffffffffffffffffffffff1673ffffffffffffffffffffffffffffffffffffffff163373ffffffffffffffffffffffffffffffffffffffff16146107fe576040517f08c379a00000000000000000000000000000000000000000000000000000000081526004016107f590610efe565b60405180910390fd5b5f805f8581526020019081526020015f206001015403610853576040517f08c379a000000000000000000000000000000000000000000000000000000000815260040161084a906112fe565b60405180910390fd5b827f05133cebd17bb0db0851c6a5156d2538534769ffbe09b99e7807a42729339e5c8383604051610885929190610f1c565b60405180910390a26040518060600160405280848152602001838152602001828152505f808581526020019081526020015f205f820151815f01556020820151816001015560408201518160020190816108df9190611144565b50905050505050565b60405180606001604052805f81526020015f8152602001606081525090565b5f604051905090565b5f80fd5b5f80fd5b5f819050919050565b61092a81610918565b8114610934575f80fd5b50565b5f8135905061094581610921565b92915050565b5f80fd5b5f80fd5b5f601f19601f8301169050919050565b7f4e487b71000000000000000000000000000000000000000000000000000000005f52604160045260245ffd5b61099982610953565b810181811067ffffffffffffffff821117156109b8576109b7610963565b5b80604052505050565b5f6109ca610907565b90506109d68282610990565b919050565b5f67ffffffffffffffff8211156109f5576109f4610963565b5b6109fe82610953565b9050602081019050919050565b828183375f83830152505050565b5f610a2b610a26846109db565b6109c1565b905082815260208101848484011115610a4757610a4661094f565b5b610a52848285610a0b565b509392505050565b5f82601f830112610a6e57610a6d61094b565b5b8135610a7e848260208601610a19565b91505092915050565b5f805f60608486031215610a9e57610a9d610910565b5b5f610aab86828701610937565b9350506020610abc86828701610937565b925050604084013567ffffffffffffffff811115610add57610adc610914565b5b610ae986828701610a5a565b9150509250925092565b5f8060408385031215610b0957610b08610910565b5b5f610b1685828601610937565b9250506020610b2785828601610937565b9150509250929050565b610b3a81610918565b82525050565b5f602082019050610b535f830184610b31565b92915050565b5f60208284031215610b6e57610b6d610910565b5b5f610b7b84828501610937565b91505092915050565b610b8d81610918565b82525050565b5f81519050919050565b5f82825260208201905092915050565b8281835e5f83830152505050565b5f610bc582610b93565b610bcf8185610b9d565b9350610bdf818560208601610bad565b610be881610953565b840191505092915050565b5f606083015f830151610c085f860182610b84565b506020830151610c1b6020860182610b84565b5060408301518482036040860152610c338282610bbb565b9150508091505092915050565b5f6020820190508181035f830152610c588184610bf3565b905092915050565b5f82825260208201905092915050565b5f610c7a82610b93565b610c848185610c60565b9350610c94818560208601610bad565b610c9d81610953565b840191505092915050565b5f606082019050610cbb5f830186610b31565b610cc86020830185610b31565b8181036040830152610cda8184610c70565b9050949350505050565b5f73ffffffffffffffffffffffffffffffffffffffff82169050919050565b5f610d0d82610ce4565b9050919050565b610d1d81610d03565b82525050565b5f602082019050610d365f830184610d14565b92915050565b5f805f60608486031215610d5357610d52610910565b5b5f610d6086828701610937565b9350506020610d7186828701610937565b9250506040610d8286828701610937565b9150509250925092565b5f81519050919050565b5f82825260208201905092915050565b5f819050602082019050919050565b5f606083015f830151610dca5f860182610b84565b506020830151610ddd6020860182610b84565b5060408301518482036040860152610df58282610bbb565b9150508091505092915050565b5f610e0d8383610db5565b905092915050565b5f602082019050919050565b5f610e2b82610d8c565b610e358185610d96565b935083602082028501610e4785610da6565b805f5b85811015610e825784840389528151610e638582610e02565b9450610e6e83610e15565b925060208a01995050600181019050610e4a565b50829750879550505050505092915050565b5f6020820190508181035f830152610eac8184610e21565b905092915050565b7f556e617574686f72697a656400000000000000000000000000000000000000005f82015250565b5f610ee8600c83610c60565b9150610ef382610eb4565b602082019050919050565b5f6020820190508181035f830152610f1581610edc565b9050919050565b5f604082019050610f2f5f830185610b31565b8181036020830152610f418184610c70565b90509392505050565b7f4e487b71000000000000000000000000000000000000000000000000000000005f52602260045260245ffd5b5f6002820490506001821680610f8e57607f821691505b602082108103610fa157610fa0610f4a565b5b50919050565b5f819050815f5260205f209050919050565b5f6020601f8301049050919050565b5f82821b905092915050565b5f600883026110037fffffffffffffffffffffffffffffffffffffffffffffffffffffffffffffffff82610fc8565b61100d8683610fc8565b95508019841693508086168417925050509392505050565b5f819050919050565b5f61104861104361103e84610918565b611025565b610918565b9050919050565b5f819050919050565b6110618361102e565b61107561106d8261104f565b848454610fd4565b825550505050565b5f90565b61108961107d565b611094818484611058565b505050565b5b818110156110b7576110ac5f82611081565b60018101905061109a565b5050565b601f8211156110fc576110cd81610fa7565b6110d684610fb9565b810160208510156110e5578190505b6110f96110f185610fb9565b830182611099565b50505b505050565b5f82821c905092915050565b5f61111c5f1984600802611101565b1980831691505092915050565b5f611134838361110d565b9150826002028217905092915050565b61114d82610b93565b67ffffffffffffffff81111561116657611165610963565b5b6111708254610f77565b61117b8282856110bb565b5f60209050601f8311600181146111ac575f841561119a578287015190505b6111a48582611129565b86555061120b565b601f1984166111ba86610fa7565b5f5b828110156111e1578489015182556001820191506020850194506020810190506111bc565b868310156111fe57848901516111fa601f89168261110d565b8355505b6001600288020188555050505b505050505050565b7f4e487b71000000000000000000000000000000000000000000000000000000005f52603260045260245ffd5b7f4e487b71000000000000000000000000000000000000000000000000000000005f52601160045260245ffd5b5f61127782610918565b91507fffffffffffffffffffffffffffffffffffffffffffffffffffffffffffffffff82036112a9576112a8611240565b5b600182019050919050565b7f5265636f726420646f6573206e6f742065786973742e000000000000000000005f82015250565b5f6112e8601683610c60565b91506112f3826112b4565b602082019050919050565b5f6020820190508181035f830152611315816112dc565b905091905056fea26469706673582212202b65b23579ce54014569f3f9b0054cb4699333635e59dd10f9643a5587c174a064736f6c63430008190033",
  "immutableReferences": {},
  "source": "// SPDX-License-Identifier: MIT\r\npragma solidity ^0.8.0;\r\n\r\ncontract AttendanceTracker {\r\n    struct AttendanceRecord {\r\n        uint employeeId;\r\n        uint256 checkInTime;\r\n        string details;\r\n    }\r\n\r\n    mapping(uint => AttendanceRecord) public attendanceRecords;\r\n    mapping(uint => uint[]) public employeeAttendanceLog;\r\n\r\n    address public owner;\r\n\r\n    constructor() {\r\n        owner = msg.sender;\r\n    }\r\n\r\n    modifier onlyOwner() {\r\n        require(msg.sender == owner, \"Unauthorized\");\r\n        _;\r\n    }\r\n\r\n    event Debug(uint indexed employeeId, uint256 checkInTime, string details);\r\n\r\n    function recordAttendance(\r\n        uint employeeId,\r\n        uint256 checkInTime,\r\n        string memory details\r\n    ) public onlyOwner {\r\n        emit Debug(employeeId, checkInTime, details);\r\n        AttendanceRecord memory newRecord = AttendanceRecord(\r\n            employeeId,\r\n            checkInTime,\r\n            details\r\n        );\r\n        attendanceRecords[employeeId] = newRecord;\r\n        employeeAttendanceLog[employeeId].push(checkInTime);\r\n    }\r\n\r\n    function getAttendanceByEmployee(\r\n        uint employeeId\r\n    ) public view returns (AttendanceRecord memory) {\r\n        return attendanceRecords[employeeId];\r\n    }\r\n\r\n    function updateAttendance(\r\n        uint employeeId,\r\n        uint256 checkInTime,\r\n        string memory details\r\n    ) public onlyOwner {\r\n        require(\r\n            attendanceRecords[employeeId].checkInTime != 0,\r\n            \"Record does not exist.\"\r\n        );\r\n        emit Debug(employeeId, checkInTime, details);\r\n        attendanceRecords[employeeId] = AttendanceRecord(\r\n            employeeId,\r\n            checkInTime,\r\n            details\r\n        );\r\n    }\r\n\r\n    function getAttendanceByDateRange(\r\n        uint employeeId,\r\n        uint256 startTime,\r\n        uint256 endTime\r\n    ) public view returns (AttendanceRecord[] memory) {\r\n        uint[] memory log = employeeAttendanceLog[employeeId];\r\n        AttendanceRecord[] memory recordsInRange = new AttendanceRecord[](\r\n            log.length\r\n        );\r\n\r\n        uint count = 0;\r\n        for (uint i = 0; i < log.length; i++) {\r\n            AttendanceRecord memory record = attendanceRecords[log[i]];\r\n            if (\r\n                record.checkInTime >= startTime && record.checkInTime <= endTime\r\n            ) {\r\n                recordsInRange[count] = record;\r\n                count++;\r\n            }\r\n        }\r\n\r\n        // Ct mng theo s lng bn ghi thc t c tm thy\r\n        AttendanceRecord[] memory trimmedRecords = new AttendanceRecord[](\r\n            count\r\n        );\r\n        for (uint j = 0; j < count; j++) {\r\n            trimmedRecords[j] = recordsInRange[j];\r\n        }\r\n\r\n        return trimmedRecords;\r\n    }\r\n}\r\n",
  "sourcePath": "D:\\Working\\be-earning-interview-2\\contracts\\AttendanceTracker.sol",
  "compiler": {
    "name": "solc",
    "version": "0.8.25+commit.b61c2a91.Emscripten.clang"
  },
  "schemaVersion": "3.4.16",
  "updatedAt": "2024-05-10T08:14:50.377Z",
  "networkType": "ethereum",
  "devdoc": {
    "kind": "dev",
    "methods": {},
    "version": 1
  },
  "userdoc": {
    "kind": "user",
    "methods": {},
    "version": 1
  }
}